:100000000C9462000C94BE040C9497040C948A0027
:100010000C948A000C948A000C948A000C948A0038
:100020000C948A000C948A000C948A000C948A0028
:100030000C948A000C948A000C948A000C948A0018
:100040000C944D040C948A000C940B050C94E5045C
:100050000C948A000C948A000C948A000C948A00F8
:100060000C948A000C948A000000000023002600F3
:10007000290000000000240027002A0000000000E2
:10008000250028002B0004040404040404040202D4
:100090000202020203030303030301020408102007
:1000A0004080010204081020010204081020000012
:1000B0000008000201000003040700000000000027
:1000C00000003F0A11241FBECFEFD8E0DEBFCDBF36
:1000D00011E0A0E0B1E0E0E1F9E102C005900D928D
:1000E000A039B107D9F722E0A0E9B1E001C01D9223
:1000F000AE35B207E1F710E0C2E6D0E004C02197C8
:10010000FE010E94800CC136D107C9F70E9482050A
:100110000C94860C0C940000833081F028F481301C
:1001200099F08230A9F008958730A9F08830C9F09D
:100130008430B1F4809180008F7D03C08091800075
:100140008F7780938000089584B58F7784BD08955C
:1001500084B58F7DFBCF8091B0008F778093B00006
:1001600008958091B0008F7DF9CF1F93CF93DF93D7
:10017000282F30E0F901E255FF4F8491F901E6564E
:10018000FF4FD491F901EA57FF4FC491CC23A9F056
:10019000162F81110E948C00EC2FF0E0EE0FFF1F54
:1001A000E458FF4FA591B4918FB7F894EC911111D9
:1001B00008C0D095DE23DC938FBFDF91CF911F91D4
:1001C0000895DE2BF8CFCF93DF9390E0FC01E65645
:1001D000FF4F24918A579F4FFC0184918823D1F0CF
:1001E00090E0880F991FFC01EE58FF4FA591B49144
:1001F000FC01E458FF4FC591D49161110EC09FB727
:10020000F8948C91E22FE0958E238C932881E22341
:10021000E8839FBFDF91CF9108958FB7F894EC9159
:10022000E22BEC938FBFF6CF1F93CF93DF93182F62
:10023000EB0161E00E94E300209739F460E0812F38
:10024000DF91CF911F910C94B500CF3FD10511F4F0
:1002500061E0F5CFE12FF0E0E255FF4FE491E330AC
:1002600031F140F4E130B1F0E230E1F0C038D105D5
:100270007CF7E4CFE73029F1E83059F1E430B1F709
:1002800080918000806280938000D0938B00C09327
:100290008A0004C084B5806884BDC7BDDF91CF915A
:1002A0001F91089584B5806284BDC8BDF7CF809149
:1002B0008000806880938000D0938900C09388007C
:1002C000EDCF8091B00080688093B000C093B30000
:1002D000E5CF8091B00080628093B000C093B400FD
:1002E000DDCF3FB7F8948091BD019091BE01A09100
:1002F000BF01B091C00126B5A89B05C02F3F19F0E2
:100300000196A11DB11D3FBFBA2FA92F982F882795
:10031000BC01CD01620F711D811D911D42E0660F70
:10032000771F881F991F4A95D1F708958F929F9242
:10033000AF92BF92CF92DF92EF92FF926B017C015E
:100340000E9471014B015C01C114D104E104F1046C
:10035000B9F00E947101681979098A099B09683E00
:1003600073408105910580F321E0C21AD108E108AC
:10037000F10888EE880E83E0981EA11CB11CE4CF22
:10038000FF90EF90DF90CF90BF90AF909F908F90B5
:10039000089508950895AF92BF92CF92DF92EF92A1
:1003A000FF920F931F93CF93DF936C017B018B011F
:1003B000040F151FEB015E01AE18BF08C017D1076F
:1003C00059F06991D601ED91FC910190F081E02DF9
:1003D000C6010995892B79F7C501DF91CF911F914E
:1003E0000F91FF90EF90DF90CF90BF90AF90089566
:1003F000FC01538D448D252F30E0842F90E0821B2B
:10040000930B541710F0CF96089501970895FC01AF
:10041000918D828D981761F0A28DAE0FBF2FB11D07
:100420005D968C91928D9F5F9F73928F90E008955F
:100430008FEF9FEF0895FC01918D828D981731F019
:10044000828DE80FF11D858D90E008958FEF9FEF6D
:100450000895FC01918D228D892F90E0805C9F4F43
:10046000821B91098F739927089581EC91E00E9476
:10047000290221E0892B09F420E0822F089580E0F1
:1004800090E0892B29F00E94350281110C94000024
:100490000895FC01A48DA80FB92FB11DA35ABF4F19
:1004A0002C91848D90E001968F739927848FA68973
:1004B000B7892C93A089B1898C91837080648C93C7
:1004C000938D848D981306C00288F389E02D808176
:1004D0008F7D80830895EF92FF920F931F93CF93A8
:1004E000DF93EC0181E0888F9B8D8C8D98131AC06F
:1004F000E889F989808185FF15C09FB7F894EE8956
:10050000FF896083E889F9898081837080648083B2
:100510009FBF81E090E0DF91CF911F910F91FF90FD
:10052000EF900895F62E0B8D10E00F5F1F4F0F73A5
:100530001127E02E8C8D8E110CC00FB607FCFACF60
:10054000E889F989808185FFF5CFCE010E944902B3
:10055000F1CFEB8DEC0FFD2FF11DE35AFF4FF08231
:100560009FB7F8940B8FEA89FB8980818062CFCF97
:10057000CF93DF93EC01888D8823B9F0AA89BB89DA
:10058000E889F9898C9185FD03C0808186FD0DC0C5
:100590000FB607FCF7CF8C9185FFF2CF808185FFE6
:1005A000EDCFCE010E944902E9CFDF91CF910895AE
:1005B00060E470E089E00E94140164E670E080E08D
:1005C00090E00E94960170E060E089E00E941401D2
:1005D00064E670E080E090E00E94960160E470E0E4
:1005E00089E00E94140164E670E080E090E00E94DF
:1005F000960170E060E089E00E94140164E670E01A
:1006000080E090E00E9496016091040170910501E4
:1006100089E00C941401CF92DF92EF92FF926B016C
:100620007C0120E030E040EA50E40E94BF0B87FDEF
:100630000BC020E030E040EC50E4C701B6010E945E
:10064000D90A18160CF085C020E030E040EC50E4E8
:10065000C701B6010E94BF0B87FD0BC020E030E050
:1006600040EE50E4C701B6010E94D90A18160CF0FA
:1006700073C020E030E040EE50E4C701B6010E94B4
:10068000BF0B87FD0BC020E030E040E051E4C70124
:10069000B6010E94D90A18160CF061C020E030E0C3
:1006A00040E051E4C701B6010E94BF0B87FD0BC0BB
:1006B00020E030E040E151E4C701B6010E94D90AD0
:1006C00018160CF04FC020E030E040E151E4C701C3
:1006D000B6010E94BF0B87FD0BC020E030E040E276
:1006E00051E4C701B6010E94D90A18160CF03DC0AA
:1006F00020E030E040E251E4C701B6010E94BF0BA8
:1007000087FD0AC020E030E040E351E4C701B601B4
:100710000E94D90A181664F520E030E040E351E465
:10072000C701B6010E94BF0B87FD0AC020E030E080
:1007300040E451E4C701B6010E94D90A1816DCF45E
:100740008091040190910501FF90EF90DF90CF9090
:1007500008958AE090E0F8CF8EE190E0F5CF82E353
:1007600090E0F2CF8CE390E0EFCF86E490E0ECCF26
:1007700080E590E0E9CF8AE590E0E6CFFC010190CA
:100780000020E9F73197AF01481B590BBC0181EC00
:1007900091E00C94CB018F929F92AF92BF920F93F6
:1007A0001F93CF93DF93CDB7DEB7A1970FB6F89421
:1007B000DEBF0FBECDBF19A2423008F44AE08E0161
:1007C0000F5D1F4F842E912CB12CA12CA5019401FB
:1007D0000E944A0CE62FB901CA01EA30F4F4E05D48
:1007E000D801EE938D01232B242B252B79F790E054
:1007F00080E0109719F0CD010E94BE03A1960FB6BC
:10080000F894DEBF0FBECDBFDF91CF911F910F9146
:10081000BF90AF909F908F900895E95CE1CFCF9308
:10082000DF930E94BE03EC0189E191E00E94BE03C8
:100830008C0F9D1FDF91CF910895CF92DF92EF92A1
:10084000FF92CF93DF936C01990FEE08FF08F7FE3C
:1008500019C06DE281EC91E00E946B02EC01662709
:100860007727CB016C197D098E099F094AE00E9408
:10087000CB038C0F9D1FDF91CF91FF90EF90DF9006
:10088000CF9008954AE0C701B601DF91CF91FF9064
:10089000EF90DF90CF900C94CB031F920F920FB686
:1008A0000F9211242F933F938F939F93AF93BF93F6
:1008B0008091B9019091BA01A091BB01B091BC01A6
:1008C0003091B80123E0230F2D3758F50196A11D73
:1008D000B11D2093B8018093B9019093BA01A09300
:1008E000BB01B093BC018091BD019091BE01A0916C
:1008F000BF01B091C0010196A11DB11D8093BD0142
:100900009093BE01A093BF01B093C001BF91AF917E
:100910009F918F913F912F910F900FBE0F901F903D
:10092000189526E8230F0296A11DB11DD2CF1F9264
:100930000F920FB60F9211242F933F934F935F9313
:100940006F937F938F939F93AF93BF93EF93FF9397
:10095000E0910201F09103010995FF91EF91BF91A0
:10096000AF919F918F917F916F915F914F913F9147
:100970002F910F900FBE0F901F9018951F920F92FE
:100980000FB60F9211242F933F934F935F936F9362
:100990007F938F939F93AF93BF93EF93FF93E091D8
:1009A0000001F09101010995FF91EF91BF91AF9185
:1009B0009F918F917F916F915F914F913F912F9177
:1009C0000F900FBE0F901F9018951F920F920FB6A9
:1009D0000F9211242F933F934F935F936F937F93C5
:1009E0008F939F93AF93BF93EF93FF9381EC91E02D
:1009F0000E944902FF91EF91BF91AF919F918F911A
:100A00007F916F915F914F913F912F910F900FBE0A
:100A10000F901F9018951F920F920FB60F921124EE
:100A20002F938F939F93EF93FF93E091D101F091D8
:100A3000D2018081E091D701F091D80182FD1BC0E5
:100A400090818091DA018F5F8F732091DB01821793
:100A500041F0E091DA01F0E0EF53FE4F958F809383
:100A6000DA01FF91EF919F918F912F910F900FBE1F
:100A70000F901F9018958081F4CFCF92DF92EF9264
:100A8000FF920F931F93E82FF92F05C00150110912
:100A90002109310961F1908196239417B9F305C0BA
:100AA000015011092109310911F190819623941304
:100AB000F7CFC12CD12CE12CF12C0AC08FEFC81A32
:100AC000D80AE80AF80A0C151D052E053F0579F02D
:100AD00080818623841791F36C2D7D2D8E2D9F2D83
:100AE0001F910F91FF90EF90DF90CF90089560E0FD
:100AF00070E080E090E01F910F91FF90EF90DF9009
:100B0000CF900895CF93DF93CDB7DEB76A970FB636
:100B1000F894DEBF0FBECDBF789484B5826084BDEB
:100B200084B5816084BD85B5826085BD85B58160F1
:100B300085BD80916E00816080936E00109281006F
:100B4000809181008260809381008091810081602A
:100B500080938100809180008160809380008091EB
:100B6000B10084608093B1008091B0008160809377
:100B7000B00080917A00846080937A0080917A003E
:100B8000826080937A0080917A00816080937A00FD
:100B900080917A00806880937A001092C10061E0B1
:100BA00089E00E94E30060E08AE00E94E30061E0E7
:100BB00082E00E94E30060E083E00E94E30060E0E6
:100BC00089E00E94B500E091D101F091D20182E06C
:100BD0008083E091CD01F091CE011082E091CF01B0
:100BE000F091D0018FEC80831092D901E091D50172
:100BF000F091D60186E08083E091D301F091D40199
:100C0000808180618083E091D301F091D401808163
:100C100088608083E091D301F091D4018081806865
:100C20008083E091D301F091D40180818F7D808316
:100C3000E8EBF0E08491E4EAF0E01491E0E9F0E020
:100C40000491002379F081110E948C00E02FF0E0E4
:100C5000EE0FFF1FE859FF4FA591B4918C91182317
:100C600081E009F480E081708093B7018FB7F89438
:100C70004090B9015090BA016090BB017090BC01E6
:100C80008FBF8091B70190910601891751F0409272
:100C9000B3015092B4016092B5017092B601809395
:100CA00006019091B2019111A3C0811125C08091DC
:100CB000B3019091B401A091B501B091B601A30127
:100CC0009201281B390B4A0B5B0BDA01C901883EE4
:100CD0009340A105B10580F00E94D80260E470E065
:100CE00089E00E94140141E04093B20164EF71E099
:100CF00080E090E00E94960161E082E00E94B500F1
:100D000060E082E00E94B500EDE9F0E06491E9E87E
:100D1000F0E08491E82FF0E0EE0FFF1FE859FF4F5D
:100D20008591949100E412E42FE030E0462F0E9478
:100D30003D05611571058105910529F06F5F7F4FB4
:100D40008F4F9F4F9F700E940F0B26E933E44BE0BB
:100D50005DE30E94C40B20E030E040E05FE30E94CE
:100D6000C40B6D877E878F87988B80919E019091B1
:100D70009F01FC01EE0FFF1FEE0FFF1FEE56FE4F0F
:100D80002D853E854F855889208331834283538347
:100D9000019663E070E00E94360C90939F0180936F
:100DA0009E018091900190919101833091052CF4E6
:100DB0000196909391018093900120909001309042
:100DC0009101A2E9B1E0AE014F5F5F4F4A01FA0124
:100DD00090E080E05A01821593053CF54D915D91BC
:100DE0006D917D9141935193619371930196F3CFEE
:100DF000811182CF8091B3019091B401A091B5018E
:100E0000B091B601A3019201281B390B4A0B5B0B71
:100E1000DA01C901803D9740A105B10508F46CCF06
:100E20000E94D8021092B20161CFF12CE12CC101D5
:100E300001979A8F898FA98DBA8DEA16FB060CF05F
:100E400043C0BFEFEB1AFB0A840167012C143D0479
:100E500021F4E4E08E0E911CEECFD4012D913D9152
:100E60004D915C91298B3A8B4B8B5C8BD8011496FE
:100E70002D913D914D915C9117972D8B3E8B4F8B12
:100E8000588F69897A898B899C890E94BF0B1816B3
:100E9000ACF42D893E894F89588DD4012D933D9313
:100EA0004D935C93139729893A894B895C89D801C2
:100EB00014962D933D934D935C931797BFEFCB1AE8
:100EC000DB0A0C5F1F4FC2CFC10137FC019695951D
:100ED0008795FC01EE0FFF1FEE0FFF1FEA0DFB1DB4
:100EE000C080D180E280F38020FC18C00197880F79
:100EF000991F880F991F8A0D9B1DFC01208131814C
:100F000042815381C701B6010E946D0A20E030E0A2
:100F100040E05FE30E94C40B6B017C012DEC3CECD4
:100F20004CEC5EE36D857E858F8598890E94C40BAD
:100F30004B015C012AE939E949E15FE3C701B601E8
:100F40000E94C40B9B01AC01C501B4010E946D0A53
:100F50006B017C0120E030E040E751E40E94BF0BD0
:100F600018160CF471C1C092AE01D092AF01E0929C
:100F7000B001F092B1018091AA019091AB01A091D2
:100F8000AC01B091AD01892B8A2B8B2BE9F0C0907D
:100F9000AE01D090AF01E090B001F090B10120E03F
:100FA00030E040EA50E4C701B6010E94BF0B87FD64
:100FB000EAC120E030E040E251E4C701B6010E94FE
:100FC000D90A18160CF4DFC18CE191E00E94BE032F
:100FD000C090AE01D090AF01E090B001F090B101AF
:100FE000A7019601C701B6010E94310C882309F4BC
:100FF00038C188E291E00E94BE0384E391E00E9440
:10100000BE038BE191E00E940F048090AE019090AE
:10101000AF01A090B001B090B101A5019401609121
:10102000A6017091A7018091A8019091A9010E9449
:101030006C0A6B017C0120E030E0A9010E94BF0B2B
:10104000181624F0F7FAF094F7F8F0948091B201B2
:10105000882309F46EC08091AA019091AB01A09100
:10106000AC01B091AD010097A105B10509F461C0D3
:10107000A3019201281B390B4A0B5B0BDA01C90152
:10108000803D9740A105B10508F453C020E030E051
:1010900040EC5FE3C701B6010E94D90A87FF49C04F
:1010A0008091A2019091A301A091A401B091A5010A
:1010B0000097A105B10569F0A3019201281B390B26
:1010C0004A0B5B0BDA01C90181319742A105B105D9
:1010D00080F1C501B4010E940B038C0189E491E009
:1010E0000E940F04C8010E941D040E94D802809132
:1010F000A10141E084278093A1014092A201509276
:10110000A3016092A4017092A5011092AA0110920D
:10111000AB011092AC011092AD01B80189E00E94C0
:101120001401109305010093040183E691E00E94ED
:101130000F041091B201112309F464C18090AE0133
:101140009090AF01A090B001B090B10120E030E0EC
:1011500040EA50E4C501B4010E94BF0B87FD17C0EF
:1011600020E030E040E251E4C501B4010E94D90A18
:1011700018166CF08091AA019091AB01A091AC017E
:10118000B091AD01892B8A2B8B2B09F4FFC020E095
:1011900030E040EC5FE3C701B6010E94BF0B1816B8
:1011A0000CF43AC18091A101882309F45BC16091DC
:1011B000AE017091AF018091B0019091B1010E9498
:1011C0000B0300910401109105018017910789F12B
:1011D0004091A00141112DC051E05093A001801712
:1011E00091070CF0E4C0081B190B84E690E0B801ED
:1011F0000E94360CF12CE12C4B01770FAA08BB089A
:101200006091040170910501CB0101979093050154
:101210008093040189E00E941401C501B4010E9479
:1012200096018FEFE81AF80A0E151F0549F710927C
:10123000A00188E791E00E940F0480910401909141
:1012400005010E941D040EC180E090E0A0E7B1E41A
:101250008093AE019093AF01A093B001B093B10120
:101260008ACE46015701E894B7F82FEF3FEF4FE7DA
:101270005FE7C501B4010E94310C81110DC02FEF51
:101280003FEF4FE75FE7C501B4010E94D90A181686
:101290001CF48CE291E0AFCE2FEF3FEF4FE75FE41D
:1012A000C701B6010E94BF0B18161CF480E391E041
:1012B000A2CE2FEF3FEF4FE75FECC701B6010E94D0
:1012C000D90A87FDF3CF20E030E0A901C701B601BC
:1012D0000E94D90A87FF09C06DE281EC91E00E946B
:1012E0006B02F7FAF094F7F8F0942AE037ED43EA4E
:1012F0005BE3C701B6010E946D0A4B015C010E94CD
:10130000DE0A6B017C010E940D0B9B01AC01C50143
:10131000B4010E946C0A4B015C014AE0C701B601AE
:101320000E94CB036EE281EC91E00E946B0220E010
:1013300030E040E251E4C501B4010E94C40B4B010E
:101340005C010E94DE0A6B01F12CE12C4AE0C7012E
:10135000B6010E94CB03C701B6010E940D0B9B0191
:10136000AC01C501B4010E946C0A20E030E040E20B
:1013700051E40E94C40B0E94DE0A90E080E04AE043
:101380000E94CB033ACE88E391E039CE8092A60149
:101390009092A701A092A801B092A9014092AA013F
:1013A0005092AB016092AC017092AD01FBCE081778
:1013B00019070CF03CCFDC01A01BB10B8D0184E6BA
:1013C00090E0BD010E94360CF12CE12C4B01770F0F
:1013D000AA08BB086091040170910501CB01019638
:1013E000909305018093040189E00E941401C501D6
:1013F000B4010E949601BFEFEB1AFB0A0E151F0500
:1014000049F715CF20E030E040EC5FE3C701B601BB
:101410000E94BF0B181634F58091AA019091AB0180
:10142000A091AC01B091AD01892B8A2B8B2BC1F01F
:101430004092AA015092AB016092AC017092AD0152
:101440008091AE019091AF01A091B001B091B10136
:101450008093A6019093A701A093A801B093A9013E
:101460001111A0CEE0E0F0E0EF2B09F4E1CB0E94F7
:101470003502882309F4DCCB0E940000D9CBE1ECD3
:10148000F1E01382128288EE93E0A0E0B0E0848362
:101490009583A683B7838BE091E09183808385EC6D
:1014A00090E09587848784EC90E09787868780EC2E
:1014B00090E0918B808B81EC90E0938B828B82EC1F
:1014C00090E0958B848B86EC90E0978B868B118EC9
:1014D000128E138E148E08955058BB27AA270E948F
:1014E000840A0C94850B0E94770B38F00E947E0BC7
:1014F00020F039F49F3F19F426F40C94740B0EF489
:10150000E095E7FB0C946E0BE92F0E94960B58F3C5
:10151000BA17620773078407950720F079F4A6F5D8
:101520000C94B80B0EF4E0950B2EBA2FA02D0B01E6
:10153000B90190010C01CA01A0011124FF27591B18
:1015400099F0593F50F4503E68F11A16F040A22F1E
:10155000232F342F4427585FF3CF4695379527958F
:10156000A795F0405395C9F77EF41F16BA0B620B8E
:10157000730B840BBAF09150A1F0FF0FBB1F661FD5
:10158000771F881FC2F70EC0BA0F621F731F841F18
:1015900048F4879577956795B795F7959E3F08F03E
:1015A000B0CF9395880F08F09927EE0F9795879500
:1015B00008950E944A0B08F481E008950E949E0B52
:1015C00088F09F5798F0B92F9927B751B0F0E1F004
:1015D000660F771F881F991F1AF0BA95C9F714C0B4
:1015E000B13091F00E94B80BB1E008950C94B80BA3
:1015F000672F782F8827B85F39F0B93FCCF38695ED
:1016000077956795B395D9F73EF490958095709549
:1016100061957F4F8F4F9F4F0895E89409C097FBC6
:101620003EF490958095709561957F4F8F4F9F4FB9
:101630009923A9F0F92F96E9BB279395F6958795FD
:1016400077956795B795F111F8CFFAF4BB0F11F4C0
:1016500060FF1BC06F5F7F4F8F4F9F4F16C0882367
:1016600011F096E911C0772321F09EE8872F762F9D
:1016700005C0662371F096E8862F70E060E02AF0DE
:101680009A95660F771F881FDAF7880F96958795CA
:1016900097F90895990F0008550FAA0BE0E8FEEF9F
:1016A00016161706E807F907C0F012161306E40726
:1016B000F50798F0621B730B840B950B39F40A261F
:1016C00061F0232B242B252B21F408950A2609F4FD
:1016D000A140A6958FEF811D811D089597F99F6701
:1016E00080E870E060E008959FEF80EC08950024AA
:1016F0000A941616170618060906089500240A9477
:1017000012161306140605060895092E0394000CFC
:1017100011F4882352F0BB0F40F4BF2B11F460FF8B
:1017200004C06F5F7F4F8F4F9F4F089557FD9058B4
:10173000440F551F59F05F3F71F04795880F97FB95
:10174000991F61F09F3F79F087950895121613064F
:101750001406551FF2CF4695F1DF08C0161617067E
:101760001806991FF1CF86957105610508940895B3
:10177000E894BB2766277727CB0197F908950E9445
:101780004A0B08F48FEF08950E94D70B0C94850B39
:101790000E94770B38F00E947E0B20F0952311F009
:1017A0000C946E0B0C94740B11240C94B90B0E94C6
:1017B000960B70F3959FC1F3950F50E0551F629FF4
:1017C000F001729FBB27F00DB11D639FAA27F00D9A
:1017D000B11DAA1F649F6627B00DA11D661F829FC1
:1017E0002227B00DA11D621F739FB00DA11D621FA6
:1017F000839FA00D611D221F749F3327A00D611DC3
:10180000231F849F600D211D822F762F6A2F1124A4
:101810009F5750409AF0F1F088234AF0EE0FFF1FD7
:10182000BB1F661F771F881F91505040A9F79E3F2E
:10183000510580F00C946E0B0C94B90B5F3FE4F3F0
:10184000983ED4F3869577956795B795F795E79584
:101850009F5FC1F7FE2B880F911D9695879597F98D
:1018600008950E944A0B880B990B089597FB072E49
:1018700016F4009407D077FD09D00E946C0C07FC89
:1018800005D03EF4909581959F4F08957095619590
:101890007F4F0895A1E21A2EAA1BBB1BFD010DC0AC
:1018A000AA1FBB1FEE1FFF1FA217B307E407F50710
:1018B00020F0A21BB30BE40BF50B661F771F881FEC
:1018C000991F1A9469F760957095809590959B0182
:1018D000AC01BD01CF010895AA1BBB1B51E107C09C
:1018E000AA1FBB1FA617B70710F0A61BB70B881FB0
:1018F000991F5A95A9F780959095BC01CD0108953F
:10190000EE0FFF1F0590F491E02D0994F894FFCF9E
:10191000CA01CA01050001000000006B02CB01F8FA
:1019200001B802290207021B020D0A0064697374E0
:10193000616E6365203D20006E616E00696E660019
:101940006F76660020636D00696E2064696D6D6955
:101950006E672072616E6765007570646174696E90
:1019600067206272696768746E65737320746F2094
:101970003A2000746F67676C65642064696D6D69F7
:101980006E67206D6F64650064696D6D696E6720B8
:10199000746F206272696768746E6573733A2000B1
:00000001FF
